:020000040800F2
:1000000068060020010100082D300008F3290008CF
:10001000A92E0008290E00087546000800000000FF
:10002000000000000000000000000000C73B0008C6
:10003000471000080000000031340008FD3E0008B1
:100040001B0100081B0100081B0100081B01000820
:100050001B0100081B0100081B0100081B01000810
:100060001B0100081B0100081B0100081B01000800
:100070001B0100081B0100081B0100081B010008F0
:100080001B0100081B0100081B0100081B010008E0
:100090001B0100081B0100081B0100081B010008D0
:1000A0001B0100081B0100081B0100081B010008C0
:1000B0001B0100081B010008BD3F00081B010008D0
:1000C0001B0100081B0100081B0100081B010008A0
:1000D0001B010008454600081B0100081B01000821
:1000E0001B0100081B0100081B010008DFF80CD0F1
:1000F00000F004FD004800472D5F0008680600205E
:100100000648804706480047FEE7FEE7FEE7FEE7B1
:10011000FEE7FEE7FEE7FEE7FEE7FEE7653F0008D5
:10012000ED000008202A04DB203A21FA02F0002129
:10013000704721FA02F3D040C2F1200291400843F7
:100140001946704740EA01039B0703D009E008C93C
:10015000121F08C0042AFAD203E011F8013B00F88C
:10016000013B521EF9D27047D2B201E000F8012BD8
:10017000491EFBD270470022F6E710B513460A4627
:1001800004461946FFF7F0FF204610BDF0B480EAA0
:100190000102D40F4200B2EB410F02D202460846E0
:1001A00011464A0042D0C30DDDB2C1F3C752AD1AA9
:1001B000202D35DAC1F3160141F4000204B1524298
:1001C000C5F1200602FA06F12A411044B3EBD05FD4
:1001D00023D0C4B1012DA0EBC35009DCF0BC4FF01B
:1001E000004202EAC352DBB200F5000000F07BBB24
:1001F000400000F1807000EBC350A0F1807040EA35
:10020000D170490009E0490841EAC071A0EBC35030
:1002100000F50000400800EBC350F0BC00F05ABBF2
:100220006142012202EB4101001BF6E7F0BC70477E
:1002300081F00041AAE780F00040A7E780EA0102D0
:1002400010B502F00043400022D04A001FD0010E3A
:1002500001EB1261C0F35600C2F3560240F40000F5
:1002600042F40002A0FB022000047F39140400D0F5
:10027000401C50EA124001D44000491EC2B20C0694
:1002800004EBD010401C4008802A02D003E000207C
:1002900010BD20F00100002900DA0020184310BD35
:1002A00030B480EA010202F0004530F0004221F053
:1002B000004013D090B1C30DD40DC2F31601C0F3AA
:1002C0001600E41A41F4000140F400027D3491422A
:1002D00001D3641C00E04900002C02DA30BC00208D
:1002E00070474FF400000023914201D3891A034361
:1002F00040084FEA4101F7D151B1914202D14FF08C
:10030000004105E002D24FF0010101E06FF0010170
:1003100003EBC450284430BC00F0DCBA2DE9FE4F9A
:10032000804681EA0300C00F0C46009021F0004196
:1003300023F00045B8EB0200A94105D24046214612
:1003400090461C460B46024623F00040104347D01F
:10035000270DC7F30A00C3F30A510290401A019017
:1003600040286BDAC3F3130040F4801B00989246D8
:1003700020B10023D2EB030A63EB0B0B0198594623
:10038000C0F14002504600F084FA06460D46504641
:100390005946019A00F08CFA10EB080061410024E4
:1003A00087EA115284EAE7731A4340D0009A62B395
:1003B000019A012A4FEA075215DC001B61EB02018A
:1003C0004FF0004202EA0752CDE90042001C41F51D
:1003D000801132462B4600F0C3FA03B0BDE8F08F1F
:1003E00040462146F9E7001B61EB0201001C41F584
:1003F000801300185B412018A2F5001747EB03019A
:1004000040EAD570B6196D4111E06D084FEA360625
:1004100045EAC0754FEA0752001B61EB0201001C60
:1004200041F5801149084FEA300000195141324628
:100430002B4603B0BDE8F04F00F083BA00980122CC
:1004400040000023D0EB020263EBE07300982146EA
:100450004FEAE074B8EB000061EB0401E9E783F0D8
:1004600000435BE781F0004158E72DE9FE4F81EA48
:10047000030404F0004421F0004100944FF0000B0D
:1004800023F0004350EA01045ED052EA03045BD03B
:10049000C3F30A54C1F30A552C44A4F2F334019473
:1004A000A0FB0254C1F3130141F48011C3F3130301
:1004B00043F4801301FB024400FB034E840A970AB5
:1004C00044EA815447EA8357A4FB076802958D0AE2
:1004D00005FB07854FEA932C04FB0C542705029D6E
:1004E0004FEA065847EA1637B5EB08056EEB070CDE
:1004F000870E920E47EA811742EA8312A7FB020198
:10050000B6EB0B0164EB00042B0D43EA0C335E18D1
:1005100044EB1C50DA465146E7FB0201C5F31304D5
:100520004FEA0B3343EA14534FEA0432019C43EA87
:100530000603A4F10C040294009CCDE900B400F081
:100540000FFA03B0BDE8F08F00200146F9E72DE96E
:10055000F04D81EA030404F0004B21F000451446FD
:100560004FF0000A23F0004150EA050220D054EA7F
:1005700001021DD0C5F30A570246C5F31303C1F3A8
:100580001300C1F30A5640F4801543F48013A7EB1F
:100590000608101BD64608F2FD3873EB050002D39F
:1005A00008F1010801E092185B41B8F1000F03DA8D
:1005B00000200146BDE8F08D00204FF48011064672
:1005C00084460EE0171B73EB050705D3121B63EB84
:1005D000050306434CEA010C49084FEA3000921823
:1005E0005B4150EA0107EDD152EA030012D082EAE2
:1005F000040083EA0501084305D0101BAB4106D275
:100600000122002306E000224FF0004302E06FF0D9
:10061000010253101AEB06004CEB085110EB0A00D4
:1006200041EB0B01BDE8F04D00F08BB9C10F80EA42
:10063000E0700844CA079623002100F054B90EB5B3
:10064000C10F80EAE0700844CA07002140F233433A
:100650008DE80E000A460B4600F082F903B000BD9B
:100660000EB540F2334102910021CDE900110A4656
:100670000B4600F075F903B000BD00F0004220F019
:100680000040C10DC0F3160040F400007F2901DADC
:1006900000207047962903DCC1F19601C84001E0B3
:1006A00096398840002AF4D04042704770B5C1F3B3
:1006B0000A5201F000450024C1F3130140F2FF3358
:1006C00041F480119A4201DA002070BD40F23343B8
:1006D0009A42A2F2334203DC5242FFF723FD00E0CC
:1006E00090402C43F1D0404270BDC1F30A5210B586
:1006F000C1F3130140F2FF3341F480119A4201DA51
:10070000002010BD40F233439A42A2F2334203DC90
:100710005242FFF707FD10BD904010BD00F00042AF
:1007200030F000400AD0C10D01F56071C0F3160031
:1007300042EA0151C20840071143704700200146B8
:100740007047000030B5041E71F1000404DB4FF067
:100750000044404264EB0101141E73F1000405DB08
:100760001C464FF00043524263EB04038B4208BF28
:10077000824230BD30B5041E71F1000404DB4FF03D
:100780000044404264EB0101141E73F1000405DBD8
:100790001C464FF00043524263EB0403994208BFEA
:1007A000904230BD01F0004330B421F0004150EAE6
:1007B000010206D00A0DA2F56072C1F31301002AEE
:1007C00002DC30BC00207047440F44EAC104C10081
:1007D000E01830BC00EBC25000F07CB8002801DB10
:1007E000C0F10040002901DBC1F1004181427047A6
:1007F000002801DBC0F10040002901DBC1F100410C
:100800008842704730B50B46014600202022012463
:1008100009E021FA02F59D4205D303FA02F5491BCE
:1008200004FA02F52844151EA2F10102F1DC30BDE4
:100830002DE9F05F0546002092469B468846064615
:10084000814640241BE02846414647462246FFF7A2
:1008500069FC53465A46C01A914110D311461846B6
:10086000224600F016F82D1A67EB01084F46224683
:100870000120002100F00DF817EB00094E41201E69
:10088000A4F10104DFDC484631462A464346BDE870
:10089000F09F202A04DB203A00FA02F10020704782
:1008A0009140C2F1200320FA03F3194390407047AE
:1008B000202A06DBCB17203A41FA02F043EAE07324
:1008C00006E041FA02F3D040C2F120029140084311
:1008D000194670470029A8BF7047401C490008BF4F
:1008E00020F00100704710B4B0FA80FC00FA0CF060
:1008F00050EA010404BF10BC704749B1CCF1200498
:1009000021FA04F411FA0CF118BF01212143084324
:10091000A3EB0C01CB1D4FEA00614FEA102042BF50
:10092000002010BC704700EBC35010440029A4BF46
:1009300010BC7047401C490008BF20F0010010BCEB
:10094000704710B5141E73F1000408DA401C41F121
:10095000000192185B411A4301D120F0010010BD43
:100960002DE9F04D92469B4611B1B1FA81F202E0B9
:10097000B0FA80F220329046FFF78BFF04460F4614
:1009800040EA0A0041EA0B0153465A46084313D095
:10099000114653EA010019D0C8F140025046FFF752
:1009A000C1FB05460E46504659464246FFF771FFC9
:1009B000084305D0012004E020463946BDE8F08D0B
:1009C0000020054346EAE0762C4337430A98630546
:1009D000E40AA0EB08000022FD0A44EA47540A306A
:1009E00002D500200146E9E7010510196941DDE95A
:1009F000084500196941BDE8F04DA2E770B521F046
:100A0000004303430CD0C1F30A550024D5EB040581
:100A100064EB0403D617AD1AB34102DB0020014694
:100A200070BD201841EB025170BD2DE9F04D00233F
:100A30001A461B1A8A4103DB00200146BDE8F08DEF
:100A4000C1F30A52C1F3130141F480154FF0000BBA
:100A5000D10702D100186D41521E0027044640F212
:100A6000FF11384601EB620A3E46804602460020EE
:100A70004FF48011FFF756FBC2197141BB1846EBCA
:100A80000100B4EB030C75EB000C04D3E41A65EB26
:100A9000000517460E46241908F101006D418046F5
:100AA0003428E3DDF91946EB0600091BA84103D2FF
:100AB0004FF0FF32134601E0002213461BEB070004
:100AC00046EB0A51BDE8F04DFFF73BBFC1F30A52B8
:100AD000C1F3130140F2FF3341F480119A4202DA6C
:100AE00000200146704740F233439A42A2F233425B
:100AF00002DC5242FFF716BBFFF7CBBE064C074D98
:100B000006E0E06840F0010394E8070098471034DD
:100B1000AC42F6D3FFF7EEFA2865000848650008F6
:100B200030B589B004460D461149D1E90023D1E919
:100B30000201CDE90423CDE906010D4BD3E90412EE
:100B4000D3E90603CDE90203CDE9001201232246D1
:100B5000694604A803F08CFB2A46694604A800F005
:100B6000B7F810B1012009B030BD0020FBE700004C
:100B7000000100202DE9F04792B0044694E80F00F0
:100B80000AAD0FC54D4B20330FCB06AD0FC54C48FA
:100B90000068FFF7C3FD0546DDE90C733A46FFF731
:100BA000D1FD0BD2454ADDE90A01C2E90801C2E9DB
:100BB000040103C2012012B0BDE8F08706AA0AA909
:100BC0000EA805F080FA3F480068FFF7A7FD05462C
:100BD000DDE910733A46FFF7B5FD24D239480068C5
:100BE000FFF79CFDCDE9100101230AAA06A90EA872
:100BF00003F03EFB06AA0EA90EA800F069F808B1A2
:100C00000120D8E74FF0FF330AAA06A90EA803F087
:100C10002FFB06AA0EA90EA800F05AF808B1012071
:100C2000C9E70020C7E706A90EA8FFF779FF08B1BA
:100C30000120C0E723480068FFF770FD05462A46FB
:100C40000B46DDE90C783846414605F086F98146C9
:100C50008A461D480068FFF761FDCDE904010022C6
:100C60001A4BDDE910512846FFF758FBCDE9009AF1
:100C7000CDE90201DDE9042305F038F9CDE91001E1
:100C800001230AAA06A90EA803F0F2FA06A90EA8E3
:100C9000FFF746FF08B101208DE74FF0FF330AAAA6
:100CA00006A90EA803F0E4FA06A90EA8FFF738FF7C
:100CB00008B101207FE700207DE70000000100204F
:100CC00070000020680000206C0000200000F03F51
:100CD0002DE9FF5F044689469246D4E90056D9E9DA
:100CE0000001CDE90001DAE900B35A46FFF7BAFB8B
:100CF00007468846D4E900B3D9E900015A46CDE950
:100D00000001FFF7ACFBCDE9020134494868FFF769
:100D100005FD2A463346CDE90001FFF713FD01D258
:100D200000200DE02D490868FFF7F8FC2A463346FD
:100D3000CDE90001FFF71EFD01D3012000E00020F6
:100D4000002848D02549C868FFF7E8FCCDE9000134
:100D5000DDE90223FFF7F6FC01D200200DE01F4978
:100D60008868FFF7DBFCCDE90001DDE90223FFF72E
:100D700001FD01D3012000E0002060B3174948695C
:100D8000FFF7CCFC3A464346CDE90001FFF7DAFC19
:100D900001D200200DE011490869FFF7BFFC3A4677
:100DA0004346CDE90001FFF7E5FC01D3012000E057
:100DB000002080B10A4AD4E90010C2E90010D9E944
:100DC0000010C2E90410DAE90010C2E9081001209D
:100DD00004B0BDE8F09F0020FAE7000030010020D9
:100DE0000001002010B5042001F046FF18B10120D9
:100DF0000C49087006E0012001F03EFF10B1002010
:100E0000084908700748007820B903F067F802F035
:100E100025FB05E003480078012801D100F016F910
:100E200010BD00000F00002000BFFEE738B524A46D
:100E300024680094234C247804B938BD9DF8004000
:100E4000045D782C0AD19DF80040641C045D3D2CA3
:100E500004D19DF800400444618800E0EDE79DF86E
:100E60000140045D792C0AD19DF80140641C045DA9
:100E70003D2C04D19DF801400444628800E0DCE789
:100E80009DF80240045D722C0AD19DF80240641C5A
:100E9000045D3D2C04D19DF802400444638800E0C9
:100EA000CBE70CB2084D2C8014B2084D2C801CB23C
:100EB000074D2C800124074D2C7000BFBDE70000BA
:100EC0000004080C05000020080000200A00002093
:100ED0000C000020060000202DE9F04102F0A0F9EE
:100EE000044602F095F90546002C01DA684205B285
:100EF000280104EB440101EBC40100EB410006B200
:100F00006842000104EB440101EBC40100EB410025
:100F100007B23946304601F0D5FFBDE8F081000048
:100F2000002003E00021034A1154401C0928F9DB8A
:100F300070470000A80000202DE9F04F8DB0044656
:100F40000D4616461F46DDE9168900224FF0804304
:100F500020462946FFF789FA824632463B46FFF78C
:100F600084FA42464B46CDE9080140464946FFF720
:100F70007CFA32463B46CDE9040130463946FFF75C
:100F800074FA82468B4622462B4620462946FFF7B6
:100F90006CFA52465B46CDE90001FFF7BFF9CDE997
:100FA0000201DDE90423FFF75AFACDE90601DDE984
:100FB0000823FFF7CCFACDE90A0104F0A9FB0DB034
:100FC000BDE8F08F2DE9F04F89B004460D46164676
:100FD0001F46DDE9120104F0A9FE82468B4600227D
:100FE0004FF0804320462946FFF73FFA80463246BD
:100FF0003B46FFF73AFA52465B46CDE90001FFF760
:1010000034FA32463B46CDE9040130463946FFF713
:101010002CFA8046894622462B4620462946FFF771
:1010200024FA824642464B46FFF778F9CDE90201A1
:10103000DDE90423FFF713FACDE9060105F0EEF828
:1010400009B0BDE8F08F7047704700002DE9F04708
:101050008CB002F0BFFE8348007800287ED0824822
:10106000007802280ED1042001F006FE38B10120DC
:101070007D4908707D484169052002F0B7FE0CB03B
:10108000BDE8F0877848007800286ED10D2001F087
:10109000F3FD40B10120744908707448416905208E
:1010A00002F0A4FEEBE7DFF8C891DFF8C8A17248B0
:1010B000B0F90000FFF7BAFA80464946FFF7BBF8DF
:1010C0000746FFF7DAFA04B26C48B0F90000FFF700
:1010D000ADFA80465146FFF7AEF80746FFF7CDFA66
:1010E00005B26748B0F90000C0F1140006B2002C48
:1010F00001DD204600E06042022832DA002D01DDE9
:10110000284600E0684202282BDA002E01DD304636
:1011100000E07042022824DA5A49052002F066FEF7
:1011200000270DE002F04CF9042001F0A5FD18B1F4
:1011300001204D490870A2E70A2000F025F97F1C24
:10114000C82FEFDB182250496846FEF7FBFF6846C0
:1011500002F026FE02204449087001E07FE004E02E
:1011600000BF4A484A4908603AE03F4800780128F1
:1011700036D13E484169052002F038FEDFF8F09094
:10118000DFF810A13C48B0F90000FFF74FFA8046A5
:101190004946FFF750F80746FFF76FFA04B23748A1
:1011A000B0F90000FFF742FA80465146FFF743F8D6
:1011B0000746FFF762FA05B2002C01DD204600E089
:1011C0006042022809DA002D01DD284600E068426D
:1011D000022802DA00202449087000202C49086007
:1011E0002046FFF723FA80462B4801684046FFF768
:1011F00025F80746FFF792FACDE906012846FFF7E2
:1012000015FA8046254801684046FFF717F807465B
:10121000FFF784FACDE908013046FFF707FA804668
:101220001B4801684046FFF709F80746FFF776FAC2
:10123000CDE90A011248B0F900000290DDE9080189
:10124000CDE90001DDE906733A4615A003F0AAFADC
:1012500006A802F059FD00200249087000BF00BF37
:101260000DE70000060000201C000020A862000816
:101270000000A0420000BB42080000200A0000203D
:101280000C0000200000204268620008CDCC4C3DDC
:101290001400002000007042100000201800002000
:1012A000783D252E326620793D252E326620723D0E
:1012B00025640D0A000000000146052901DD052016
:1012C00004E0002901DA002000E00846014A52F853
:1012D00020007047B400002070B50446002594F843
:1012E0002100022803D00420A063012548E02068E3
:1012F000006820F00E00216808602068006820F077
:101300000100216808601F492068884201D101203E
:1013100026E01C4914312068884201D110201FE0CA
:10132000184928312068884201D1801518E01549F4
:101330003C312068884201D1801411E011495031BC
:101340002068884202D14FF4803009E00D496431B1
:101350002068884202D14FF4801001E04FF0807085
:10136000084908394860012084F8210000BF0020A6
:1013700084F8200000BF606B10B12046616B884785
:10138000284670BD0800024070B5044600F0A4F97C
:1013900006462546681C10B104480078054400BF85
:1013A00000F09AF9801BA842FAD370BD9C0000207F
:1013B0002DE9F84703460024002000258446002735
:1013C00000226EE14FF0010808FA02F4D1F8008023
:1013D00008EA0400A0427DD1DFF8D0A2D1F8048051
:1013E000A8EB0A09D0453AD014DCB8F1030F50D06D
:1013F00009DCB8F1000F31D0B8F1010F1CD0B8F101
:10140000020F49D120E0B8F1110F18D0B8F1120F36
:1014100042D11EE0B9F5881F25D006DCB9F5803F22
:1014200020D0B9F5801F37D11AE0B9F5001F18D0C8
:10143000B9F5041F30D117E0D1F80CC02DE0D1F878
:101440000C8008F1040C28E0D1F80C8008F1080C9D
:1014500023E0D1F80C8008F10C0C1EE000BF00BFA7
:1014600000BF00BF00BF00BFD1F80880B8F1000F77
:1014700002D14FF0040C0BE0D1F80880B8F1010F55
:1014800003D14FF0080C1C6102E04FF0080C5C61C6
:1014900003E04FF0000C00E000BF00BFFF2801D8C0
:1014A000984601E003F104084646FF2802D84FEAB7
:1014B000820803E0A2F108084FEA88084746D6F8F8
:1014C00000804FF00F0909FA07F928EA09080CFA19
:1014D00007F900E088E048EA0908C6F80080D1F87A
:1014E000048008F08058B8F1805F7DD100BFDFF83C
:1014F000C081D8F8188048F00108DFF8B491C9F825
:101500001880C846D8F8188008F00108CDF8008087
:1015100000BF00BF4FEAB9384FEA920958F8295086
:101520004FEA82784FEA18794FF00F0808FA09F865
:1015300025EA0805DFF87C81434502D14FF0000819
:1015400016E0DFF87481434502D14FF001080FE047
:10155000DFF86881434502D14FF0020808E0DFF868
:101560006081434502D14FF0030801E04FF00408C9
:101570004FEA82794FEA197908FA09F848EA05052D
:10158000DFF840814FEA920948F82950D1F80480E9
:1015900008F48038B8F5803F0AD1DFF82C81D8F8FC
:1015A000008048EA0008DFF82091C9F8008009E0CF
:1015B000DFF81481D8F8008028EA0008DFF80891E5
:1015C000C9F80080D1F8048008F40038B8F5003F6D
:1015D00010D1DFF8F48008F10408D8F8008048EA58
:1015E0000008DFF8E49000E05AE009F10409C9F8C6
:1015F00000800DE0DFF8D08008F10408D8F8008002
:1016000028EA0008DFF8C09009F10409C9F8008051
:10161000D1F8048008F48018B8F5801F0ED1DFF8E7
:10162000A88008F10808D8F8008048EA0008DFF828
:10163000989009F10809C9F800800DE0DFF888806A
:1016400008F10808D8F8008028EA0008DFF8789048
:1016500009F10809C9F80080D1F8048008F40018DD
:10166000B8F5001F0ED1DFF8608008F10C08D8F83B
:10167000008048EA0008DFF8509009F10C09C9F829
:1016800000800DE0DFF8408008F10C08D8F80080F9
:1016900028EA0008DFF8309009F10C09C9F8008049
:1016A000521C102AFFF48EAEBDE8F887000011101E
:1016B0000010024000080140000C014000100140F1
:1016C0000014014008000140000401400AB101611A
:1016D00001E00B0403617047014800687047000097
:1016E0009400002003480068034909780844014930
:1016F00008607047940000209C00002010B5084846
:10170000006840F0100006490860032000F0C4F8AB
:10171000002000F007F800F049F8002010BD00009C
:101720000020024070B588B0044600250026002243
:1017300021461E2000F071F81E2000F061F800BF65
:101740001648C06940F004001449C8610846C069E1
:1017500000F00400019000BF00BF02A903A800F040
:1017600097F900F0BDF945000D48B5FBF0F0461EB5
:101770000C480D49086040F2E7310B48C1604660F3
:1017800000210161816000F068FC20B9064800F08A
:10179000A6FC08B070BD0120FBE70000001002406D
:1017A00040420F00000800402802002008B500BF9A
:1017B0001148806940F001000F498861084680693E
:1017C00000F00100009000BF00BF00BF0846C069E4
:1017D00040F08050C8610846C06900F08050009019
:1017E00000BF00BF00BF0549486820F0E06040F03E
:1017F0000070486000BF08BD0010024000000140BA
:1018000000BF00F01F02012191404209920002F145
:10181000E022C2F8001100BF70472DE9F05F80465A
:101820000D461646002701F003FC074639462A46B6
:10183000334601F00700C0F1070ABAF1040F02D9DC
:101840004FF0040A01E0C0F1070AD14600F1040A92
:10185000BAF1070F02D24FF0000A01E0A0F1030A2B
:10186000D4464FF0010A0AFA09FAAAF1010A0AEA73
:10187000020A0AFA0CFA4FF0010B0BFA0CFBABF15F
:10188000010B0BEA030B4AEA0B042146404601F028
:10189000D7FBBDE8F09F000000BF00F00702064B39
:1018A00019684FF6FF031940044B0B4343EA02212A
:1018B000014B196000BF70470CED00E00000FA0515
:1018C00070B504460D4600266D48006800F007001C
:1018D000A8420ED26A48006820F0070028436849F1
:1018E00008600846006800F00700A84201D0012007
:1018F00070BD207800F0020002281DD1207800F091
:101900000400042805D15F48406840F4E0605D4968
:101910004860207800F00800082805D15948406840
:1019200040F46050574948605648406820F0F00045
:10193000A168084353494860207800F0010000285E
:101940005DD06068012806D14E48006800F4003080
:1019500090B90120CCE76068022806D149480068A8
:1019600000F0007040B90120C2E74648006800F06E
:10197000020008B90120BBE74248406820F003009C
:10198000616808433F494860FFF7A6FE0646606865
:10199000012810D108E0FFF79FFE801B41F288313B
:1019A000884201D90320A3E73648406800F00C00C4
:1019B0000428F0D123E06068022810D108E0FFF786
:1019C0008BFE801B41F28831884201D903208FE7CA
:1019D0002C48406800F00C000828F0D10FE008E027
:1019E000FFF77AFE801B41F28831884201D903203B
:1019F0007EE72448406800F00C000028F0D1204821
:101A0000006800F00700A8420ED91D48006820F0C9
:101A1000070028431A4908600846006800F00700DC
:101A2000A84201D0012063E7207800F004000428D8
:101A300007D11448406820F4E060E1680843114988
:101A40004860207800F00800082808D10D48406858
:101A500020F46050216940EAC1000A49486000F062
:101A60005FF808494968C1F30311074A515CC8404F
:101A7000064908600020FFF755FE002038E7000007
:101A80000020024000100240FC620008A00000207C
:101A90000F2202600D4A526802F0030242600B4AB4
:101AA000526802F0F0028260084A526802F4E06272
:101AB000C260064A526802F46052D2080261044AC7
:101AC000126802F007020A6070470000001002402E
:101AD000002002400148006870470000A00000207C
:101AE00000B5FFF7F7FF04494968C1F30221034A33
:101AF000515CC84000BD0000001002400C630008AB
:101B000000B5FFF7E7FF04494968C1F3C221034A62
:101B1000515CC84000BD0000001002400C6300088A
:101B2000F0B585B00FF26C0C9CE8E01001A8A0E8BD
:101B3000E0101CA52D680095002100220023002440
:101B40000020194D696801F00C05F5B1042D02D093
:101B5000082D19D101E0154819E001ADC1F3834604
:101B6000AC5D01F4803555B10F4D6D68C5F340454E
:101B70001DF805200D4D6543B5FBF2F302E00C4D59
:101B800004FB05F3184602E000BF084800BF00BF91
:101B900005B0F0BD02030405060708090A0B0C0D89
:101BA0000E0F1010010200000010024000127A0017
:101BB00000093D00F8B504460025207800F001003A
:101BC000002878D0F848406800F00C0004280CD0B9
:101BD000F548406800F00C00082811D1F248406830
:101BE00000F48030B0F5803F0AD1EF48006800F47F
:101BF000003000285FD0606800285CD10120F8BD6B
:101C000000BF6068B0F5803F06D1E748006840F447
:101C10008030E549086028E0606858B9E24800680B
:101C200020F48030E04908600846006820F48020F5
:101C300008601AE06068B0F5A02F0BD1DA480068A0
:101C400040F48020D84908600846006840F480309D
:101C500008600AE0D448006820F48030D249086067
:101C60000846006820F48020086000BF606888B1E2
:101C7000FFF732FD054606E0FFF72EFD401B642806
:101C800001D90320BBE7C848006800F400300028F1
:101C9000F2D010E0FFF720FD054606E0FFF71CFD3F
:101CA000401B642801D90320A9E7BF48006800F45D
:101CB00000300028F2D1207800F00200022857D12D
:101CC000B948406800F00C0050B1B748406800F0D7
:101CD0000C00082818D1B448406800F4803098B946
:101CE000B148006800F0020020B12069012801D04D
:101CF000012084E7AC48006820F0F800616940EA00
:101D0000C100A949086033E02069E8B10120A74972
:101D10000860FFF7E1FC054606E0FFF7DDFC401B2D
:101D2000022801D903206AE79F48006800F00200FA
:101D30000028F2D09C48006820F0F800616940EA71
:101D4000C1009949086013E0002098490860FFF736
:101D5000C3FC054606E0FFF7BFFC401B022801D983
:101D600003204CE79048006800F002000028F2D100
:101D7000207800F0080008282DD1A069B8B1012012
:101D80008B490860FFF7A8FC054606E0FFF7A4FCB6
:101D9000401B022801D9032031E78348406A00F044
:101DA00002000028F2D0012001F044FB13E00020E3
:101DB0007F490860FFF790FC054606E0FFF78CFCC2
:101DC000401B022801D9032019E77748406A00F038
:101DD00002000028F2D1207800F00400042873D11A
:101DE00000267148C06900F0805070B900BF6E488D
:101DF000C06940F080506C49C8610846C06900F075
:101E00008050009000BF00BF01266A48006800F4BF
:101E10008070B0B96748006840F480706549086018
:101E2000FFF75AFC054606E0FFF756FC401B642806
:101E300001D90320E3E65F48006800F480700028C1
:101E4000F2D000BFE068012806D15748006A40F090
:101E500001005549086227E0E06858B95248006A15
:101E600020F00100504908620846006A20F0040092
:101E7000086219E0E06805280BD14B48006A40F081
:101E80000400494908620846006A40F001000862FF
:101E90000AE04548006A20F001004349086208460C
:101EA000006A20F00400086200BFE068A0B1FFF7FC
:101EB00013FC054609E0FFF70FFC401B41F2883197
:101EC000884202D903209AE622E03748006A00F0EF
:101ED00002000028EFD012E0FFF7FEFB054608E005
:101EE000FFF7FAFB401B41F28831884201D90320F9
:101EF00085E62D48006A00F002000028F0D1012E8E
:101F000005D12948C06920F080502749C86100BF29
:101F1000E069C8B32448406800F00C00082860D08D
:101F2000E069022848D1002020490866FFF7D4FB69
:101F3000054606E0FFF7D0FB401B022801D903202D
:101F40005DE61948006800F000700028F2D1206AB0
:101F5000B0F5803F07D11448406820F40030A168F4
:101F6000084311494860D4E9080108430E4949680B
:101F700021F4741108430C49486001200B4908669C
:101F8000FFF7AAFB054607E02DE0FFF7A5FB401B86
:101F9000022801D9032032E60348006800F00070EF
:101FA0000028F2D01FE00000001002400000424272
:101FB000800442420070004000200C490866FFF790
:101FC0008BFB054606E0FFF787FB401B022801D983
:101FD000032014E60648006800F000700028F2D1E3
:101FE00001E001200BE6002009E60000000042426B
:101FF0000010024070477047024600BF92F83C0054
:10200000012801D102207047012082F83C0000BF66
:10201000022082F83D001068406820F070001368CC
:102020005860106840680B6818431368586010685F
:10203000806820F0800013689860106880684B68A2
:10204000184313689860012082F83D0000BF00200B
:1020500082F83C0000BF00BFD5E710B504460CB9BC
:10206000012010BD94F83D0028B9002084F83C0000
:10207000204600F00DF8022084F83D00211D206864
:1020800001F0A4FF012084F83D000020E9E70000F2
:1020900008B5094A016891420DD100BF0749C969D5
:1020A00041F00201054AD1611146C96901F00201FE
:1020B000009100BF00BF08BD0004004000100240B6
:1020C0000146022081F83D000868006840F00100E8
:1020D0000A681060012081F83D0000207047014629
:1020E0000868C06840F001000A68D06008680068AD
:1020F00040F001000A68106000207047014602208D
:1021000081F83D0000BF0868006A41F211121040DA
:1021100050B90868006A9210104028B90868006831
:1021200020F001000A68106000BF012081F83D0026
:10213000002070472DE9F04104460D46002600BFFF
:1021400094F83C00012802D10220BDE8F081012072
:1021500084F83C0000BF022084F83D0020688668B7
:1021600026F0770626F47F46206886602868502887
:102170003BD00CDC202860D004DC002853D0102891
:1021800065D155E030285DD0402860D141E060281D
:1021900035D070280DD0B0F5805F03D0B0F5005F6A
:1021A00055D115E02068806820F00700216888601C
:1021B0004EE0D5E902136A68206801F04FFF2068FD
:1021C000866826F0770646F07706206886603FE04E
:1021D000D5E902136A68206801F040FF2068806832
:1021E00040F480402168886032E0EA6869682068CD
:1021F00002F012F85021206801F03CFF28E0EA6864
:102200006968206802F01DF86021206801F032FF43
:102210001EE0EA686968206801F0FEFF402120683E
:1022200001F028FF14E00021206801F023FF0FE0F7
:102230001021206801F01EFF0AE02021206801F033
:1022400019FF05E03021206801F014FF00E000BF15
:1022500000BF012084F83D0000BF002084F83C004E
:1022600000BF00BF71E7704710B5044620680069E1
:10227000C0F34000D8B12068C068C0F34000B0B1DE
:102280006FF00200216808610120207720688069D2
:1022900000F0030018B12046FFF7E5FF05E02046F7
:1022A00000F0E6F8204600F099F900202077206839
:1022B0000069C0F38000D8B12068C068C0F3800016
:1022C000B0B16FF004002168086102202077206817
:1022D000806900F4407018B12046FFF7C4FF05E0A4
:1022E000204600F0C5F8204600F078F9002020775D
:1022F00020680069C0F3C000D8B12068C068C0F38E
:10230000C000B0B16FF00800216808610420207798
:102310002068C06900F0030018B12046FFF7A3FF52
:1023200005E0204600F0A4F8204600F057F9002010
:10233000207720680069C0F30010D8B12068C06819
:10234000C0F30010B0B16FF01000216808610820E0
:1023500020772068C06900F4407018B12046FFF76C
:1023600082FF05E0204600F083F8204600F036F9B1
:10237000002020772068006900F0010058B1206833
:10238000C06800F0010030B16FF001002168086101
:10239000204600F045F920680069C0F3C01058B12C
:1023A0002068C068C0F3C01030B16FF080002168B1
:1023B00008612046FFF71EFE20680069C0F3801008
:1023C00058B12068C068C0F3801030B16FF0400091
:1023D00021680861204600F02FF920680069C0F3E9
:1023E000401058B12068C068C0F3401030B16FF0A1
:1023F0002000216808612046FFF7FDFD10BD0000A8
:1024000010B586B004460020029003900490059019
:102410002068B0F1804F22D100BF1248806940F09F
:102420000800104988610846806900F008000190A2
:1024300000BF00BF4FF4406002900220039005905F
:1024400002A90948FEF7B4FF00BF0849486820F414
:10245000407040F0E06040F40070486000BF06B09B
:1024600010BD000000100240000C014000000140BF
:10247000704770B504460D46164600BF94F83C0000
:10248000012801D1022070BD012084F83C0000BF6A
:10249000022084F83D0036B1042E1BD0082E31D026
:1024A0000C2E5ED145E02946206801F0EDFD206844
:1024B000806940F00800216888612068806920F008
:1024C00004002168886120688069296908432168BF
:1024D000886147E02946206801F008FE206880698D
:1024E00040F40060216888612068806920F4806081
:1024F0002168886120688069296940EA0120216893
:1025000088612FE02946206801F028FE2068C06914
:1025100040F008002168C8612068C06920F004000C
:102520002168C8612068C069296908432168C861B9
:1025300018E02946206801F047FE2068C06940F491
:1025400000602168C8612068C06920F4806021684B
:10255000C8612068C069296940EA01202168C86112
:1025600000E000BF00BF012084F83D0000BF002054
:1025700084F83C0000BF00BF85E710B504460CB9E5
:10258000012010BD94F83D0028B9002084F83C00DB
:10259000204600F00DF8022084F83D00211D20683F
:1025A00001F014FD012084F83D000020E9E700005F
:1025B00008B50168B1F1804F0DD100BF0649C96966
:1025C00041F00101044AD1611146C96901F00101DC
:1025D000009100BF00BF08BD00100240704700001E
:1025E00030B504460D4601222946206801F028FD39
:1025F0000A492068884201D1012000E0002028B16A
:102600002068406C40F400402168486420680068FD
:1026100040F0010021680860002030BD002C01401E
:1026200010B5044603492068884201D1FFF75AF8E3
:1026300010BD0000000800407047704701460022AE
:10264000002391F8392091F83A3042EA03007047AC
:102650002DE9F0470446206805682068C6682068B0
:1026600047694FF00008C14605F00F08B8F1000FA8
:102670000AD105F0200038B106F0200020B1204634
:1026800001F074FEBDE8F087B8F1000F6DD007F0DF
:10269000010018B906F49070002866D005F001001A
:1026A00030B106F4807018B1E06B40F00100E063D7
:1026B00005F0040030B107F0010018B1E06B40F004
:1026C0000200E06305F0020030B107F0010018B12C
:1026D000E06B40F00400E06305F0080030B107F063
:1026E000010018B1E06B40F00800E063E06B68B3F4
:1026F00005F0200028B106F0200010B1204601F0BE
:1027000035FE20684069C0F38019E06B00F00800D6
:1027100010B9B9F1000F22D0204601F007FE206861
:10272000406900F04000B0B12068406920F04000EE
:1027300021684861606B50B11748616B4863606BFA
:10274000FEF7CAFD10B1606B416B88470CE0204674
:10275000FFF773FF08E02046FFF76FFF04E0204615
:10276000FFF76BFF0020E0638CE705F0800030B1DD
:1027700006F0800018B1204601F030FF82E705F036
:10278000400030B106F0400018B1204601F0DEFDF7
:1027900078E700BF76E700001943000810B504464B
:1027A0000CB9012010BDA06900B100E000BF94F891
:1027B000390028B9002084F83800204600F028F8B5
:1027C000242084F839002068C06820F40050216873
:1027D000C860204601F01EFE2068006920F4904089
:1027E000216808612068406920F02A00216848615A
:1027F0002068C06840F400502168C8600020E06391
:10280000202084F8390084F83A000020CAE700004C
:1028100010B586B004460020029003900490059005
:102820002849206888424BD100BF2748806940F47E
:102830008040254988610846806900F48040019005
:1028400000BF00BF00BF0846806940F004008861F7
:102850000846806900F00400019000BF00BF4815E1
:102860000290022003900320059002A91748FEF76A
:102870009FFD4FF48060029000200390049002A915
:102880001248FEF795FD01221149124800F024F884
:1028900010480068C06820F040000E490968C86010
:1028A0000C480068C06840F020000A490968C86008
:1028B0002520FEF7A5FF002203212520FEF7ADFF0E
:1028C00006B010BD00380140001002400008014071
:1028D0008A000020E801002010B5034693F83A0072
:1028E00020282FD101B10AB9012010BD00BF93F8F3
:1028F0003800012801D10220F7E7012083F83800D1
:1029000000BF99629A85DA850020D863222083F877
:102910003A0000BF002083F8380000BF1868C06884
:1029200040F480701C68E0601868406940F0010065
:102930001C6860611868C06840F020001C68E06096
:102940000020D2E70220D0E710B5044623492068D2
:10295000884242D12248008800F4004000283CD13F
:102960001F48008800F48040C8B11E4800780A283B
:1029700003D000201A4908802FE000201849098858
:10298000C1F30D01184A50541848006818B1104698
:102990001649096888470020114908801DE0114840
:1029A00000780D2806D10E48008840F480400C497C
:1029B000088012E00B48007809490988C1F30D012D
:1029C000094A505406480088401C054908800846BA
:1029D00000881D2801DD0020088010BD003801405E
:1029E000880000208A000020C80100208C00002000
:1029F000704700BFFEE7000010B500200F490860D7
:102A00000F48006820F470000D490860084600680F
:102A100040F44010086000200A49C1F894010220E7
:102A200003F0D2F9012005490860022003F0CCF937
:102A300000200449C1F8900110BD0000908121429E
:102A4000000C01400080214210B500200F490860B1
:102A50000F48006820F470000D49086008460068BF
:102A600040F44010086001200A49C1F89401022096
:102A700003F0AAF9012005490860022003F0A4F937
:102A800000200449C1F8900110BD0000908121424E
:102A9000000C01400080214270B505460024174813
:102AA000006820F47000154908600846006840F48A
:102AB00000000860002616E000201149086002208E
:102AC00003F082F901200F49C1F890016006040E5D
:102AD0000B487C38006808B1601CC4B2012003F0C8
:102AE00073F9701CC6B2082EE6DB15B9FFF7ACFF10
:102AF00001E0FFF781FF204670BD0000000C01409F
:102B0000908121420080214270B50446154800683A
:102B100020F47000134908600846006840F4401033
:102B20000860002010490860002517E0E0090E4900
:102B3000091D08606006040E022003F045F901201B
:102B40000A49C1F89001022003F03EF9002006492D
:102B50000860022003F038F9681CC5B2082DE5DBD7
:102B600070BD0000000C0140908121420080214294
:102B700010B50F48006820F470000D490860084641
:102B8000006840F44010086001200A4908600A49C2
:102B9000C1F89001042003F017F9002005490860EE
:102BA000042003F011F900200349C1F8900110BD81
:102BB000000C0140948121420080214210B50F4851
:102BC000006820F470000D4908600846006840F471
:102BD0004010086000200A4908600A49C1F89401C1
:102BE000042003F0F1F80120054908600549C1F807
:102BF0009401042003F0E8F810BD0000000C01402F
:102C0000908121420080214210B5002414480068C0
:102C100020F47000124908600846006840F4000083
:102C2000086001200F49086003F0CEF801200E492A
:102C3000C1F8900103F0C8F807E0601CC4B2FA2C98
:102C400003DDFFF7BBFF012010BD06488038006898
:102C50000028F2D10349091F086000BFF4E7000013
:102C6000000C0140948121420080214201480078FB
:102C7000704700000000002001460648B0F803003D
:102C80004A1E01239340184008B9012070470020D4
:102C9000FCE70000A800002000B585B000200190EE
:102CA00002900390049000BF3148806940F010000A
:102CB0002F4988610846806900F01000009000BF2D
:102CC00000BF00BF0846806940F0200088610846C8
:102CD000806900F02000009000BF00BF00BF0846E0
:102CE000806940F0040088610846806900F00400B3
:102CF000009000BF00BF00BF0846806940F0080098
:102D000088610846806900F00800009000BF00BF9D
:102D10000022C0211748FEF7D9FC002240F2B3314F
:102D20001548FEF7D3FC4FF40C600190012002908F
:102D3000002003900220049001A90E48FEF738FB02
:102D400040F2BB300190012002900020039002204D
:102D5000049001A90848FEF72BFB402001900020B9
:102D60000290039001A90448FEF722FB05B000BDC4
:102D70000010024000080140000C014000B589B07D
:102D80000020079008901C216846FDF7F4F94FF0E9
:102D900080401B490860002048600021184881607D
:102DA00040F6FF71C160002101618161FFF7E5FB21
:102DB00008B1FEF749F900200790089007A91048CC
:102DC000FFF71AF908B1FEF73FF9602000900020E4
:102DD000019002900490082269460948FFF749FBD8
:102DE00008B1FEF731F90C2269460548FFF741FBAF
:102DF00008B1FEF729F90248FFF702FB09B000BD50
:102E00004801002000B587B0002003900490059091
:102E100006900190029014481449086047204860C9
:102E20000021124881604FF6FF71C16000210161ED
:102E30008161FFF712F908B1FEF706F94FF48050EF
:102E4000039003A90948FFF775F908B1FEF7FCF8EC
:102E500000200190029001A90448FFF7CDF808B1C5
:102E6000FEF7F2F807B000BD000400408801002022
:102E700010B50B480B4908604FF4E1304860002161
:102E800008488160C16001610C21416100218161BC
:102E9000C161FFF783FC08B1FEF7D6F810BD000052
:102EA00000380140E801002000BFFEE710B508210E
:102EB0000348FFF795FB0C210148FFF791FB10BD7C
:102EC00048010020002815DD00223A4B1A6001223B
:102ED000394BC3F88021B0F5805F02DB40F6FF720A
:102EE00004E0002801DA002200E002464FF08043AF
:102EF0001A6423E0002817DA01222E4B1A60002200
:102F00002D4BC3F88021424210B2B0F5805F02DB46
:102F100040F6FF7204E0002801DA002200E00246D9
:102F20004FF080431A6409E00122224B1A60224BC1
:102F3000C3F8802100224FF080431A64002915DD78
:102F400000221E4B1A6001221D4BC3F89821B1F5D7
:102F5000805F02DB40F6FF7204E0002901DA002204
:102F600000E00A464FF08043DA6322E0002917DAD6
:102F70000122124B1A600022114BC3F898214A42D9
:102F800011B2B1F5805F02DB40F6FF7204E0002968
:102F900001DA002200E00A464FF08043DA6308E0DD
:102FA0000122064B1A60064BC3F8982100229B03AE
:102FB000DA63704784812142008021429C012142D2
:102FC00000002142012804D002280CD0032822D17D
:102FD00012E00021114A1160114AC2F880114FF02D
:102FE0008042116417E000210E4A11600E4AC2F8B7
:102FF00098119203D1630EE00021084A1160084A3B
:10300000C2F88011074A1160121F11604FF0804210
:103010001164D16300BF00BF70470000848121426A
:10302000008021429C0121420000214270470000A3
:1030300002480068C0F30220704700000CED00E079
:1030400010B5002807DA0A07140E054A00F00F032E
:103050001B1FD45403E00A07130E024A135410BD79
:1030600018ED00E000E400E070B50446FFF780FDD5
:103070008020FFF749FDFFF7C7FD2046FFF744FD1D
:10308000FFF7C2FDFFF774FD8120FFF73DFDFFF75D
:10309000BBFD0020FFF700FD0546FFF78FFD28462A
:1030A00070BD70B505460C46FFF762FD8020FFF746
:1030B0002BFDFFF7A9FD2846FFF726FDFFF7A4FD2E
:1030C0002046FFF721FDFFF79FFDFFF777FD70BD5D
:1030D00038B504460120009000201C4948700120AA
:1030E00000902EE0BDF80000204018B101201849E2
:1030F000086002E0002016490860012014490831E8
:103100000860102002F060FE00201249C1F8A401FE
:10311000102002F059FE01200E49C1F8A401084612
:10312000D0F8180130B109484078BDF800100843C4
:1031300006494870BDF800004FF6FF7101EA4000F3
:103140000090BDF80000FF28CCDD38BDA8000020AD
:103150009C8121420080214210B500201349086063
:10316000102002F031FE0120FFF7B2FF4320FFF7ED
:10317000AFFF0020FFF7ACFF0120FFF7A9FF002001
:10318000FFF7A6FF0020FFF7A3FF0020FFF7A0FF37
:103190000020FFF79DFF0020FFF79AFF0120044960
:1031A000C1F8A001102002F00FFE10BDA081214245
:1031B0000080214210B5002013490860102002F061
:1031C00003FE0120FFF784FF4320FFF781FF00206B
:1031D000FFF77EFF0020FFF77BFF5A20FFF778FF05
:1031E0005A20FFF775FF5A20FFF772FF5A20FFF7AA
:1031F0006FFF5A20FFF76CFF01200449C1F8A001BE
:10320000102002F0E1FD10BDA0812142008021428A
:103210000248C079803840B270470000A800002002
:103220000248007AC0F17F0040B27047A800002039
:1032300002484079803840B270470000A800002062
:1032400002488079C0F17F0040B27047A80000209A
:1032500010B500F057F810BD1CB5002001900120FA
:1032600000900020244908600120FFF731FF422030
:10327000FFF72EFF0220019032E00120009023E0B2
:1032800000201D49091D0860102002F09DFD01204D
:103290001A49C1F8A40118488838006850B1184884
:1032A0009DF80410405CBDF80010084314499DF8D7
:1032B00004208854102002F087FDBDF800004FF66E
:1032C000FF7101EA40000090BDF80000FF28D7DD43
:1032D000102002F079FD9DF80400401CC0B201905E
:1032E0009DF804000928C8DB01200349086010206C
:1032F00002F06AFD1CBD0000A08121420080214235
:10330000A800002010B500F00DF800F00BF800F058
:1033100009F8FFF721FF00F027F800F067F8FFF742
:1033200049FF10BD10B500200D490860102002F0C3
:103330004BFD0120FFF7CCFE4220FFF7C9FE002025
:10334000FFF7C6FE0020FFF7C3FE0020FFF7C0FE18
:1033500001200449C1F8A001102002F035FD10BD84
:10336000A08121420080214210B50020124908604E
:103370000120FFF7ADFE4420FFF7AAFE0020FFF773
:10338000A7FE0120FFF7A4FEEE20FFF7A1FE00201C
:10339000FFF79EFE0020FFF79BFE0020FFF798FE40
:1033A0000020FFF795FE01200449C1F8A00110207C
:1033B00002F00AFD10BD0000A081214200802142E0
:1033C00010B5FDF7ADFDFFF747FF064840787328BD
:1033D00003D101200449087002E00020024908706E
:1033E00010BD0000A80000200000002010B5002043
:1033F0000D490860102002F0E7FC0120FFF768FE8D
:103400004D20FFF765FE0020FFF762FE0020FFF76A
:103410005FFE0120FFF75CFE01200449C1F8A00116
:10342000102002F0D1FC10BDA08121420080214279
:103430007047000008B508490968C9084FF47A7256
:10344000B1FBF2F14143009100BF00BF00994A1E59
:1034500000920029F9D108BDA0000020F0B589B084
:10346000FFF7E6FE0446FFF7EBFE0546182102A82B
:10347000FCF781FE142C09DD424A434BDDE9026171
:103480003046FCF7ECFFCDE902010FE014F1140F18
:1034900009DA3C4A3C4BDDE902613046FCF73EFF6D
:1034A000CDE9020102E0002102910391142D09DD12
:1034B000364A374BDDE904613046FCF72FFFCDE992
:1034C00004010FE015F1140F09DA304A304BDDE941
:1034D00004613046FCF7C3FFCDE9040102E000209F
:1034E000049005900C20FFF7C7FB48B10022294B40
:1034F000DDE906613046FCF711FFCDE906010CE07D
:103500000A20FFF7B9FB40B10022224BDDE906613A
:103510003046FCF7A4FFCDE9060102A800F0F4FB59
:103520000020009001901020FFF7A6FB30B19DF81D
:103530000400801E40B28DF8040009E00E20FFF761
:103540009BFB28B19DF80400801C40B28DF804005C
:103550000D20FFF791FB30B19DF80500801E40B2B1
:103560008DF8050009E00F20FFF786FB28B19DF8D4
:103570000500801C40B28DF80500684600F024FB71
:1035800009B0F0BDD5EB7BF3E9CE9A3F7789C9C28C
:103590005472953F0000E03F2DE9F04F87B000F0F6
:1035A00037FB00F099FBCF490868FDF7B7F8804674
:1035B000CD4ACE4BFCF759FF0022CD4BCDE904019B
:1035C000FCF7C5FF8246FDF7EDF8CA490860C5491A
:1035D0004868FDF7A3F88246C34AC44BFCF745FF91
:1035E0000022C34BCDE90401FCF7B1FF8046FDF793
:1035F000D9F8C0494860BB49C868FDF78FF88246D2
:10360000B94ABA4BFCF731FF80460022B84BFCF7B1
:103610009EFFCDE90401FDF7C5F8B7490860B1493F
:103620004869FDF77BF88046AF4AB04BFCF71DFFB9
:103630000022AF4BCDE90401FCF789FF8246FDF77C
:10364000B1F8AD494860A7498869FDF767F8824637
:10365000A54AA64BFCF709FF80460022A44BFCF7C5
:1036600076FFCDE90401FDF79DF8A34988609D49E7
:10367000086AFDF753F880469B4A9C4BFCF7F5FE21
:10368000824600229A4BFCF762FFCDE90401FDF768
:1036900089F89949C8609349486AFDF73FF8924A0A
:1036A000924BCDE90401FCF7E0FE80460022904BEE
:1036B000FCF74DFF8246FDF775F88F49086189498F
:1036C000C86AFDF72BF88046874A884BFCF7CDFE89
:1036D0000022874BCDE90401FCF739FF8246FDF754
:1036E00061F8854948614FF0000A2DE0834951F89F
:1036F0002A00FDF713F8824A02EB0A12C2E902011E
:103700000AF10101C8B2FDF7D7FD8346FDF706F8BF
:103710008046754A754BFCF7A8FE0022744BCDE934
:103720000401FCF714FF764A02EB0A1203C2734845
:1037300050F82A1073480068FCF728FD71490860AA
:103740000AF1010000F0FF0ABAF1030FCEDB6B4A69
:1037500051681068FCF71AFD6B4908606649886873
:10376000FCF7DCFF8046604A604BFCF77BFECDE94E
:10377000040162494868FCF7D1FF82468B465F49E5
:103780000868FCF7CBFFCDE90201DDE904015246F0
:103790005B46CDE90001DDE90201FDF713FC0646B9
:1037A0000F465549C868FCF7B9FF80464E4A4F4B53
:1037B000FCF758FE82468B4650494868FCF7AEFF3E
:1037C000CDE904014D490868FCF7A8FFCDE900AB3D
:1037D000CDE90201DDE90423FDF7F4FB04460D46C3
:1037E00022462B463046394602F0B7FB8046FCF7AE
:1037F000D9FF464908600020FDF75EFD0390FCF705
:103800008DFF394A394BCDE90401FCF72EFE804685
:103810000022374BFCF79BFE8246FCF7C3FF3C4976
:1038200008600420FDF748FD0390FCF777FF2E4A5F
:103830002E4BCDE90401FCF718FE804600222C4BEC
:10384000FCF785FE8246FCF7ADFF32490860052093
:10385000FDF732FD0390FCF761FF8246224A234BBD
:10386000FCF703FE80460022214BFCF770FECDE9F9
:103870000401FCF797FF284908602148D0E900833C
:103880004246D0E904A15046FCF748FD1C4AC2E973
:1038900004011046D0E904834246D0E908A150460D
:1038A000FCF73CFD164AC2E908011046D0E90010B9
:1038B0001A4AC2E900101248D0E90210C2E9021007
:1038C0000F4A1032154901F1100002F08DFB0C4A2D
:1038D00020321249103101F1100002F085FB07B0CF
:1038E000BDE8F08F20000020182D4454FB21094032
:1038F000008066408000002030010020F062000857
:103900000001002070000020680000206C000020F2
:1039100074000020780000207C000020D0000020EF
:103920002DE9FC5F93494868FCF7F8FE04460D4614
:103930009149D1E9006332462946FCF703FF04D2DE
:103940008C494868FCF7EAFE14E08A490868FCF7ED
:10395000E5FE04460D468849D1E900633246294612
:10396000FCF708FF04D283490868FCF7D7FE01E0A2
:10397000814903C9804A03C27E49C868FCF7CEFE6C
:1039800082468B467C48D0E900633246D0E9048108
:103990004046FCF764FD52465B46CDE90001FCF76A
:1039A000E9FE04D27349C868FCF7B8FE23E0714908
:1039B0008868FCF7B3FECDE900016F480146D0E905
:1039C0000063D1E9048132464046FCF748FD824657
:1039D000DDE90023FCF7B6FE04D266498868FCF7EF
:1039E0009DFE08E06448D0E900633246D0E90481D6
:1039F0004046FCF734FD04460D465F49D1E90063BB
:103A000032462946FCF78AFC5B4AC2E9040159495F
:103A10004869FCF783FE82468B465748D0E9048309
:103A20004246D0E908613046FCF719FD52465B4634
:103A3000CDE90001FCF79EFE04D24E494869FCF72F
:103A40006DFE25E04B490869FCF768FE82468B460F
:103A500049490846D1E904633246D0E90881404625
:103A6000FCF7FDFC52465B46CDE90001FCF76AFE1F
:103A700004D240490869FCF751FE09E03E49084676
:103A8000D1E904834246D0E908613046FCF7E7FCFF
:103A900004463948D0E9046332462046FCF73EFC30
:103AA000354AC2E908013548416835480068FCF7E5
:103AB0009FFE02D2314840680BE030480168304830
:103AC0000068FCF78BFE02D22C48006801E02C480D
:103AD00000682B49086008460168002000F0B8F92A
:103AE0002548D0E900211046FCF75CFE044621463B
:103AF000012000F0ADF920490846D1E90083424693
:103B0000D0E904613046FCF7AAFC0446FCF74AFE03
:103B100082465146022000F09BF91749D1E904631F
:103B2000D1E9088132464046FCF799FC0446FCF78F
:103B300039FE82465146032000F08AF90E4903C936
:103B4000104A03C20C48D0E90210083AC2E9021038
:103B5000094A10320B4901F1100002F045FA064AF9
:103B600020320849103101F1100002F03DFABDE8A1
:103B7000FC9F000030010020000100208000002098
:103B800074000020D000002010B5FFF705FDFFF7FE
:103B90008DF900F0A1F8024800F09AF910BD00007C
:103BA0002D0E000810B5FFF70BFCFFF75FF820B1F2
:103BB000FDF792F9FDF716F904E00320FFF702FA8A
:103BC00000F07AF910BD704770B5054600240EE08C
:103BD0002857FCF72BFD06460C4850F824103046B9
:103BE000FCF7D4FA094941F82400601CC4B2062C41
:103BF000EEDB002407E0054850F82410204600F0D2
:103C0000F5F8601CC4B2062CF5DB70BDB4000020D2
:103C10002DE9F04100210846FFF743FA322002F077
:103C200061FA00244BE0284951F824004FF07E51FE
:103C3000FCF7D4FD1DD1254850F824100020FCF7D6
:103C4000F7FA04EB4401224A42F8210004EB440253
:103C50001F4B03EB8202516804EB440253F822002D
:103C6000FCF794FA04EB4401194A02EB81018860E5
:103C700023E0164951F82400FCF750FD07460022C6
:103C8000144BFCF7EFFB0546FCF78CFD04EB4401FD
:103C90000F4A42F8210004EB44020D4B03EB820271
:103CA000516804EB440253F82200FCF76FFA04EB6E
:103CB0004401074A02EB81018860601CC4B2062CF3
:103CC000B1DBBDE8F0810000D8620008C0620008E6
:103CD00020000020008066C010B500240DE00848D8
:103CE00050F82400074941F82400084650F82410F1
:103CF000204600F07BF8601CC4B2062CEFDB10BD40
:103D0000A8620008B40000202DE9F0418EB00446FE
:103D1000204BD3E905211869DB69CDE90C13CDE906
:103D20000A021D49D4E90273D1E908513A462846EE
:103D3000FCF7F4FA184AC2E9080120320AA90AA8D5
:103D400002F052F91449D1E90801CDE90601D4E99C
:103D50000401CDE9080106AA0AA90AA802F044F95B
:103D60000E480068FCF7DAFC0546D4E900733A46D1
:103D7000FCF7D4FACDE90001DDE90A01CDE9020141
:103D8000DDE90C01CDE90401684600F009F80EB048
:103D9000BDE8F081D0000020000100207400002068
:103DA0001FB50446D4E90201CDE90001D4E90401BC
:103DB000CDE902016846FCF7DDFE40B1D4E90021FF
:103DC0001046FCF7EFFC02490860FFF7A9FD1FBD94
:103DD0007400002000200349086001200249087097
:103DE00070470000AC012142050000202DE9F041A0
:103DF00004460D46134850F824102846FCF7C6F92F
:103E00000746114850F824103846FCF717FA0646C2
:103E10003146204600F030FC06460B4850F824108E
:103E20003046FCF70BFA0746064850F8241038468F
:103E3000FCF7FEF90546054840F824502846BDE841
:103E4000F0810000C0620008D8620008B4000020C1
:103E50002DE9F84F83468A4613495046FCF7EEF9A0
:103E60008146FCF75BFC0646104A114BFCF76FFBE2
:103E70000446FCF797FC804641465846FFF7B6FFDC
:103E800000900098FCF74AFC8046084A084BFCF773
:103E9000ECFA06460022074BFCF759FB0446FCF7F8
:103EA00081FCBDE8F88F000000003443182D445415
:103EB000FB2109400080664010B5002405E0002188
:103EC000204600F053FC601CC4B2062CF7DB10BD8A
:103ED00001490860704700008C000020012004495F
:103EE000086000200349087003490870704700000B
:103EF000AC0121420500002006000020704700B5FB
:103F00008FB0282105A8FCF736F914216846FCF784
:103F100032F901200590000406900020079001204E
:103F2000099002200C90C1030D914FF4E0110E9105
:103F300005A8FDF73FFE08B1FDF786F80F200090B9
:103F400002200190002002904FF480600390002036
:103F5000049002216846FDF7B3FC08B1FDF774F840
:103F60000FB000BD1148006840F001000F49086023
:103F7000084640680E4908400C49486008460068F9
:103F80000C490840094908600846006820F4802070
:103F900008600846406820F4FE0048604FF41F00A7
:103FA0008860C803044908607047000000100240A0
:103FB0000000FFF8FFFFF6FE08ED00E010B5024834
:103FC000FEF752F910BD000028020020002202680E
:103FD000184B984208D0B0F1804F05D0164B98424C
:103FE00002D0164B984203D122F070024B681A435C
:103FF000104B984208D0B0F1804F05D00E4B98423C
:1040000002D00E4B984203D122F44072CB681A437F
:1040100022F080024B691A4302608B68C3620B680E
:104020008362044B984201D10B690363012343610E
:1040300070470000002C01400004004000080040D0
:1040400030B50023012404FA01F3046A9C4304629E
:10405000046A02FA01F52C43046230BD30B50C4607
:104060000021816821F47F4142EA03252543294349
:10407000816030BD0A460021816821F0700142F064
:10408000070319438160704730B5002400220023E4
:10409000056A25F001050562026A4368846924F017
:1040A000700424F003040D682C4322F002028D6892
:1040B0002A430D4DA84206D100BF22F00802CD6868
:1040C0002A4322F00402084DA84207D123F480734A
:1040D00023F400734D692B438D692B434360846146
:1040E0004D684563026230BD002C014030B50024AC
:1040F00000220023056A25F010050562026A436864
:10410000846924F4E04424F440740D6844EA0524EE
:1041100022F020028D6842EA05120F4DA84207D115
:1041200000BF22F08002CD6842EA051222F0400270
:10413000094DA84209D123F4806323F400634D693B
:1041400043EA85038D6943EA8503436084614D68D2
:104150008563026230BD0000002C014030B50024B0
:1041600000220023056A25F480750562026A43680F
:10417000C46924F0700424F003040D682C4322F475
:1041800000728D6842EA05220E4DA84207D100BF99
:1041900022F40062CD6842EA052222F48062094DD1
:1041A000A84209D123F4805323F400534D6943EA14
:1041B00005138D6943EA05134360C4614D68C56307
:1041C000026230BD002C014030B5002200230024E3
:1041D000056A25F480550562036A4468C26922F4C1
:1041E000E04222F440720D6842EA052223F40053B3
:1041F0008D6843EA0533074DA84204D124F4804476
:104200004D6944EA85144460C2614D6805640362E7
:1042100030BD0000002C014030B50B461446002193
:104220000022026A056A25F001050562816921F014
:10423000F00141EA041122F00A021A43816102628C
:1042400030BD30B50B46144600210022056A25F02A
:10425000100505628169026A21F4704141EA043166
:1042600022F0A00242EA03128161026230BD000026
:104270002DE9F04F87B004460D4616469946D5E91C
:104280000201CDE90001D6E902A35246D4E9027148
:104290003846FCF751FECDE904014846FCF7CFF95A
:1042A0000746DDE90423FCF7E0F88246D6E900730F
:1042B0003A46FCF733F8C4E90001D6E90201CDE93A
:1042C0000001D5E902733A46D4E902A15046FCF751
:1042D00033FECDE902010E480E49DDE90223FCF769
:1042E000BEF8074688464846FCF7A9F982463A4692
:1042F0004346FCF7BAF8CDE90001D4E900733A4629
:10430000FCF7B0F8C5E9000107B0BDE8F08F000088
:10431000182D4454FB21094070B505466C6A0020F5
:10432000E085E0842046FEF788F970BD0168C96821
:1043300021F490710268D1600168496921F001019E
:1043400002685161202180F83A10704710B5044688
:104350002068C06820F040002168C860202084F8F0
:1043600039002046FEF744FB002010BD70B504461E
:1043700094F83A0022284AD1A068B0F5805F13D1A2
:10438000A56A206940B920684068C0F30800288009
:10439000A06A801CA06219E020684068C0B2288032
:1043A000A06A401CA06211E0206938B9206840680A
:1043B000C1B2A26A501CA062117007E02068406878
:1043C00000F07F01A26A501CA0621170E08D401EB7
:1043D00080B2E085C8B92068C06820F0200021685C
:1043E000C8602068C06820F480702168C8602068B8
:1043F000406920F0010021684861202084F83A00DB
:104400002046FEF7A1FA002070BD0020FCE7022044
:10441000FAE700002DE9F041044600252068006914
:1044200020F44050E1680843216808612169A068D0
:1044300008436169084305432068C06841F20C6184
:10444000884328432168C8602068406920F4407090
:10445000A1690843216848615F49206888425CD1AE
:10446000FDF74EFB00EBC00101EB00106168890015
:10447000B0FBF1F6FDF744FB00EBC00101EB0010CF
:1044800061688900B0FBF1F06421B0FBF1F000EB52
:10449000C00101EB0010A6EB8000322101EB0010FF
:1044A0006421B0FBF1F000F0F006FDF729FB00EB12
:1044B000C00101EB001061688900B0FBF1F06421DC
:1044C000B0FBF1F006EB0016FDF71AFB00EBC001A4
:1044D00001EB001061688900B0FBF1F7FDF710FBFC
:1044E00000EBC00101EB001061688900B0FBF1F046
:1044F0006421B0FBF1F000EBC00101EB0010A7EB71
:104500008000322101EB00106421B0FBF1F000F0DB
:104510000F003044216888605BE0FDF7E1FA00EBB2
:10452000C00101EB001061688900B0FBF1F6FDF7F6
:10453000D7FA00EBC00101EB001061688900B0FB05
:10454000F1F06421B0FBF1F000EBC00101EB0010D1
:10455000A6EB8000322101EB00106421B0FBF1F0EA
:1045600000F0F006FDF7BCFA00EBC00101EB001013
:1045700061688900B0FBF1F06421B0FBF1F006EB5B
:104580000016FDF7ADFA00EBC00101EB0010616809
:104590008900B0FBF1F7FDF7A3FA00EBC00101EBD6
:1045A000001061688900B0FBF1F06421B0FBF1F00C
:1045B00000EBC00101EB0010A7EB8000322101EB02
:1045C00000106421B0FBF1F000F00F0030442168CE
:1045D0008860BDE8F081000000380140014691F894
:1045E000390021282CD18868B0F5805F0FD10A6A84
:1045F0001088C0F308000B685860086918B9086A89
:10460000801C086209E0086A401C086205E00B6A29
:10461000581C086218780B685860C88C401E80B21D
:10462000C88458B90868C06820F080000B68D8605A
:104630000868C06840F040000B68D86000207047F0
:104640000220FCE710B50948FEF702F800BF074852
:10465000FDF7F4FF2028FAD100BF012204490348E6
:10466000FEF73AF90028F8D110BD0000E80100205B
:104670008A00002000BFFEE72DE9F05F04460E46E9
:1046800004EB4401374A32F91100FBF7CFFF8246B1
:1046900004EB4401334A02EB4101B1F90200FBF79C
:1046A000C5FF83463146FBF7C9FD814604EB440054
:1046B0002D4A02EB800041684846FBF7F1FD804639
:1046C0005146FBF763FD0746FBF7D7FF05B204EB46
:1046D0004400244901EB4000B0F90400A84206DA86
:1046E00004EB440001EB4000B0F904000CE004EBE3
:1046F00044001C4931F91000A84204DD04EB4400D9
:1047000031F9100000E028460546A9B2204600F025
:104710002DF804EB4401134A02EB4101B1F9020008
:10472000FBF784FF814604EB44010E4A32F9111075
:10473000681AFBF77BFF824604EB44000A4A02EB4F
:10474000800041685046FBF779FD80464946FBF7FB
:10475000A7FD07460021FBF719FD06463046BDE8D8
:10476000F09F0000826200082000002070B504461F
:104770000D46A100891DC8B20021FEF792FCA100E0
:10478000C91DC8B20021FEF78CFCE9B2A2000832B4
:10479000D0B2FEF786FC2912A2000932D0B2FEF791
:1047A00080FC70BD0FB4054B10B503A9044A0298F4
:1047B00000F016FC10BC5DF814FB0000D15E000890
:1047C00090000020490050EAC12018BF04204A0D83
:1047D00018BF40F0010040F2FF72B2EB515F08BF1A
:1047E00040F00200012808BF052070472DE9F74F6F
:1047F000144694B00021C4E902111599079121F0E3
:104800000045C9498D4206DC1599C4E9000117B07D
:104810000020BDE8F08FC549DFF814A3A9423CDDB4
:104820000799C44E0029C44FC44A1599534619DD4F
:10483000FBF715FE554506D0C14AC24BFBF70FFEEC
:10484000C4E900010AE04FF0D352BE4BFBF707FE6C
:1048500032463B46FBF703FEC4E9000117B00120D6
:10486000BDE8F08FFBF75AFD554506D0B44AB54B6D
:10487000FBF754FDC4E900010AE04FF0D352B14BFD
:10488000FBF74CFD32463B46FBF748FDC4E900010F
:1048900017B04FF0FF30BDE8F08FAB49A942159932
:1048A00078DB21F0004183468846A84AA84BFBF7F5
:1048B000DCFD0022A74BFBF731FDFBF7F7FE09906B
:1048C000FBF7BDFE06460F469C4A5346FBF7CDFD5F
:1048D00043465A46FBF7C6FD80468A46984A994B9E
:1048E00030463946FBF7C1FD2A0D01250B924246A1
:1048F0005346FBF7B7FD032DC4E9000139D00B98EF
:10490000C1F30A51401A05EB45111139814230DAE1
:104910009148C346784400EB0510CDF80CA00C90EC
:10492000D0E9002330463946FBF79FFD02460B468F
:104930000491069058460399FBF791FD80468A46FC
:1049400002460B4658460399FBF789FD049B069ADD
:10495000FBF785FD83460C9803913946D0E9022385
:104960003046FBF782FD5A46039BFBF778FD6D1C32
:10497000BDE707980028A2BF099817B0BDE8F08FDF
:10498000616881F000416160099817B04042BDE85C
:10499000F08FFFE784461598C1F31301C0F30A5066
:1049A000A0F2F5304FEA601800F01F06C6F12000B3
:1049B000139000200690079041F4801E05206D465C
:1049C00076B1664A08EB00017A4452F8213002EBD6
:1049D0008101B3404A68139922FA01F1194305E0B5
:1049E0005F4908EB0002794451F82210A1FB0E2721
:1049F000A1FB0C131A449A4234BF0123002303EB9A
:104A0000070A05EB8003D3E901B70F448F4234BF97
:104A10000121002193448B4411B1934502D903E055
:104A2000934501D2012100E00021C3E901B75144BF
:104A300045F82010011EA0F10100C1DC0298059F7D
:104A400000F10050800F12900298DDE903568000BB
:104A5000FBF7F5FD834628460D91FBF701FE6FF04D
:104A60001D02FBF7CBFFCDE90E013046FBF7F8FD49
:104A70006FF03D02FBF7C2FF80468A463846FBF7DF
:104A8000EFFD6FF05D02FBF7B9FF07464246534664
:104A90001191FBF743FCDDE90E23FBF73FFC5A467F
:104AA0000D9BFBF73BFC00250E465A4628460D9B06
:104AB000FBF7D5FCDDE90E23FBF7D1FC424653465C
:104AC000FBF7CDFC3A46119BFBF7CCFCDFF898A036
:104AD000244A5346FBF7C9FC07468846234A244B21
:104AE00031462846FBF7C1FC3A464346FBF716FC25
:104AF000074688464FF0A842534631462846FBF702
:104B0000B4FC3A464346FBF709FC159A12F0004FF5
:104B100004D0129A81F0004152421292C4E900017D
:104B2000129817B0BDE8F08FFB21E93F7CD9024015
:104B3000FB21F93F7370032E8A19A33B00004054F8
:104B40003163621A61B4D03DFB21394183C8C96D1C
:104B5000305FE43F0000E03F201B00009C1A000093
:104B60007E1A0000182D4454FB21F93D3326A6116E
:104B7000460B113C2DE9FF4D21F0004807460C463D
:104B8000B8F1795F08DAFBF791FD002801BF00203A
:104B9000324904B0BDE8F08D3A4623461046194626
:104BA000FBF763FC054602462D480E460B460621E0
:104BB000784400F05DF82A463346FBF756FCDDE901
:104BC000022382468B4638462146FBF74EFC0446BC
:104BD0000F4652465B4628463146FBF746FC2246C6
:104BE0003B46FBF73CFC07468A464FF0FF3228461F
:104BF0003146FBF703FF1B4A90450ADA3A46534613
:104C0000FBF72DFC04B00022BDE8F04D134BFBF781
:104C100029BC154A4245A8BFA8F500154FF000046D
:104C2000B8BF124D22462B46FBF719FC06468846B4
:104C300022462B4600200949FBF711FC04460D468D
:104C40003A46534630464146FBF709FC04B022463B
:104C50002B46BDE8F04DFBF705BC00000000F03F1F
:104C60004C1800003333D33F0000E93F0000D23F2F
:104C70002DE9F0414F1E00EBC7010446D1E90001C8
:104C800015461E4637F006020DD02A463346FBF77E
:104C9000ECFB7F1E04EBC703D3E90023FBF73EFBCD
:104CA00037F00602F1D1022F25D0042F13D0062FA2
:104CB00018BFBDE8F0812A463346FBF7D6FBD4E99E
:104CC0000A23FBF72BFB2A463346FBF7CEFBD4E93E
:104CD0000823FBF723FB2A463346FBF7C6FBD4E940
:104CE0000623FBF71BFB2A463346FBF7BEFBD4E942
:104CF0000423FBF713FB2A463346FBF7B6FBD4E944
:104D00000223FBF70BFB2A463346FBF7AEFBD4E945
:104D10000023BDE8F041FBF701BB00002DE9FF4D8A
:104D2000054621F0004084B00C46B0F1795F0BDA03
:104D30002846FFF747FD042808BF00F071F8284611
:104D400008B02146BDE8F08D2A460B461046FBF719
:104D50008CFB06460F462A462346FBF786FB804619
:104D600026488A4632463B4605217844FFF780FFB5
:104D700083461098029160B3214A224B4046514627
:104D8000FBF773FBCDE900015A4640465146029BB2
:104D9000FBF76BFB82468846DDE906014FF0FF32E8
:104DA000FBF72CFE52464346FBF759FB32463B4687
:104DB000FBF75BFBDDE90623FBF751FBDDE9002395
:104DC000FBF74DFB08B02A462346BDE8F04DFBF744
:104DD00049BB0B465A4630463946FBF746FB084A64
:104DE000084BFBF79BFA42465346FBF73EFB08B0E5
:104DF0002A462346BDE8F04DFBF790BA9217000013
:104E0000495555555555C5BF0122FBF7F7BDFBF771
:104E100085BA0022134610461146FBF798BB0000E6
:104E2000024A00201107FBF7E9BD000001FDFFFF6A
:104E300002E008C8121F08C1002AFAD17047704763
:104E4000002001E001C1121F002AFBD170470000C1
:104E50000149086070470000A40000202DE9FF5FB1
:104E600082B00021DDE90430020DDDF840B00343DB
:104E700018D044F61050A2F2FF3242431514119894
:104E800001281FD0A5EB0B00401C5FEA000A4FF081
:104E900000064E4FDFF83891B046504615D5CAF19E
:104EA000000413E0119801244AA3012801D16FEAFC
:104EB0000B010298119AC0E90031C0E9024206B024
:104EC000BDE8F09FCBF10000DFE704460021404A37
:104ED000491842EB0450CDE9001012E0E00707D07A
:104EE00032463B4640464946FBF7BFFA8046894674
:104EF00032463B4610461946FBF7B7FA06460F46C0
:104F00006410002CEAD1DDE90401DDE90023BAF1E7
:104F1000000F06DAFBF7A9FA42464B46FBF7A5FA63
:104F200005E0FBF714FB42464B46FBF710FB04463B
:104F30000E460022284BFBF71DFC03D84FF0FF3034
:104F4000014607E00022254B20463146FBF7E6F9F3
:104F5000FBF7BCFD102409E0002C0ADB0A22002329
:104F6000FBF766FC039B30321A55641E50EA0102BF
:104F7000F2D1641C039AC4F111031444119A012A5A
:104F800003D0012208430DD10AE0084304D00020D9
:104F90004FF0110B119072E7A3EB0B056D1E0DE0A6
:104FA0005B4504DD4FF0000205F1010504E003DA82
:104FB0004FF00002A5F10105002AECD002981199EA
:104FC000C0E90231C0E9004579E700000000144063
:104FD0000000F03F300000000000F0430000E03F20
:104FE0002DE9FF4F95B09B468946064600250FE206
:104FF000252877D100242746F84A0121059400E0AE
:10500000044316F8013F203B01FA03F01042F7D1A8
:1050100030782A2811D06FF02F033078A0F13002B9
:10502000092A16D8059A44F0020402EB820203EB27
:1050300042021044761C0590EFE759F8042B0592C4
:10504000002A03DA504244F40054059044F002046C
:10505000761C30782E2816D116F8010F44F004047F
:105060002A280DD06FF02F023078A0F13003092BE1
:1050700009D807EB870302EB4303C718761CF3E755
:1050800059F8047B761C30786C280FD006DC4C284D
:1050900017D068280DD06A2814D104E0742810D0E5
:1050A0007A280FD10DE044F400140AE044F480148F
:1050B00001E044F440147278824202D104F5801475
:1050C000761C761C307866280BD013DC582877D0F5
:1050D00009DC002875D04528F6D04628F4D04728AA
:1050E0001AD19DE118E0632835D0642879D065286D
:1050F00012D195E1702873D008DC6728F1D06928B7
:105100006FD06E280DD06F2806D1B5E073282CD053
:10511000752875D0782874D05A46179990476D1C19
:1051200075E1C4F30250022809D003280DD0D9F844
:10513000001004280DD00D6009F1040967E1D9F8C9
:105140000010EA17C1E90052F6E7D9F800100D8007
:10515000F2E70D70F0E719F8041B8DF8001000203D
:105160008DF80100EA46012003E059F804AB4FF046
:10517000FF3061074FF0000102D40DE008F101019A
:105180008846B9420FDA8045F8DB1AF80810002982
:10519000F4D108E008F1010188468142FADB1AF8EF
:1051A00008100029F6D105985B46A0EB08072146B8
:1051B0003846179A00F094FA284400EB080507E0F7
:1051C0004DE029E10DE01AF8010B5A461799904776
:1051D000B8F10108F7D25B4621463846179A13E129
:1051E00042E00A220092C4F302524FF0000A022A5F
:1051F00008D059F804CB032A4FEAEC710AD00DE02D
:1052000029E02AE009F1070121F00702F2E802C1D2
:10521000914609E00FFA8CFC4FEAEC71042A03D1A5
:105220004FFA8CFC4FEAEC71002907DA0A4600219C
:10523000DCF1000C61EB02012D2202E0220504D515
:105240002B228DF80420012203E0E20701D0202266
:10525000F7E7904659E00A2102E010220DE0102104
:105260004FF0000A00910BE010224FF0000A44F0CA
:1052700004040827009203E008224FF0000A00927D
:10528000C4F30252022A05D059F804CB0021032AA4
:1052900008D009E009F1070121F00702F2E802C194
:1052A000914605E01FFA8CFC042A01D10CF0FF0C9A
:1052B0004FF00008220728D5702806D0009B83F005
:1052C000100353EA0A0305D00EE040228DF80420B3
:1052D000012208E05CEA010206D030228DF80420A9
:1052E0008DF8050002229046009B83F0080353EAE4
:1052F0000A030AD15CEA010201D1620705D5302216
:105300008DF804204FF001087F1E582804D034A0E7
:1053100003900EA802900DE036A0F9E753466046D0
:10532000009AFBF785FA84460398825C0298401E37
:10533000029002705CEA0100F0D1029806A9081AF6
:1053400000F1200A600702D524F4803400E0012730
:10535000574502DDA7EB0A0000E0002000EB0A0140
:10536000009005984144401A0590E00306D45B463E
:105370002146179A059800F0B3F90544002706E086
:1053800001A85A46C05D179990476D1C7F1C474580
:10539000F6DBE0030CD55B462146179A059800F032
:1053A0009FF9054404E030205A46179990476D1C38
:1053B0000099481E00900029F5DC08E00298029947
:1053C0005A460078491C0291179990476D1CBAF112
:1053D0000001AAF1010AF1DC65E1000009280100E1
:1053E000303132333435363738396162636465665B
:1053F000000000003031323334353637383941421D
:10540000434445460000000000F058F90544761C6E
:10541000307800287FF4ECAD19B02846BDE8F08F55
:10542000620700D4062709F1070222F0070CFCE806
:105430000223E14603F000485FEA080C02D00FF2B5
:10544000702C0DE05FEA045C02D50FF2682C07E0D7
:105450005FEAC47C02D00FF2602C01E0AFF2700C66
:105460004FF0FF3823F00043CDF850C065280CD032
:1054700006DC452809D046281DD047283DD13DE00F
:10548000662818D067287ED138E00021112F01DB73
:10549000112000E0781CCDE9000106A90EA8FFF755
:1054A000DDFCDDE90F010E9A03910021009207F166
:1054B000010A04914DE04FF000400097CDE9011042
:1054C00006A90EA8FFF7CAFCDDE90F0203920E9BA6
:1054D00011990022DDF80CA00093049211B9791CF7
:1054E00000EB010AB7EB0A0004D4C0F1FF3007F16A
:1054F000010A0490AAEB0700019044E0012F00DAB2
:1055000001270021112F01DD112000E03846CDE9EF
:10551000000106A90EA8FFF7A1FCDDE90F010E9A14
:105520000391002104910092BA4621070CD40399FB
:10553000514500DA8A46BAF1010F05DD009AAAF159
:105540000101515C302908D0B84202DA10F1040F91
:1055500006DA0121CDE9011015E0AAF10101E9E720
:10556000002805DC049901440491AAEB000102E043
:10557000411C514500DD8A460499401A401C0190A7
:105580004FF000400290200704D40198504501DB01
:10559000CDF8048000208DF84F0002980DF14F07E0
:1055A000B0F1004F25D02B200E9002984FF002084A
:1055B00000280CDA404202902D200E9007E00A21CC
:1055C0000298FBF71FF93031029007F8011DB8F17E
:1055D0000001A8F10108F2DC02980028EFD1791E41
:1055E0000E980870307800F0200040F0450007F871
:1055F000020D12A8C01B00F107081498007800B132
:10560000012000EB0A01019801EBE071059841448B
:10561000401A401E0590E00306D45B462146179AC7
:10562000059800F05DF805441498007818B15A46C2
:10563000179990476D1CE00324D55B462146179AC5
:10564000059800F04DF805441CE00498002807DB9D
:10565000DDE90301884203DD0098405C179901E011
:10566000179930205A469047049805F10105401CCF
:1056700004900198401E019004D12E205A4617999B
:1056800090476D1CBAF10001AAF1010ADDDC05E0CA
:1056900017F8010B5A46179990476D1CB8F1000195
:1056A000A8F10108F4DC5B462146179A0598ABE6A1
:1056B0002D0000002B000000200000002DE9F0412B
:1056C000044600251E461746880404D405E03946E2
:1056D0002020B0476D1C641EF9D52846BDE8F08136
:1056E0002DE9F041044600251E469046C80301D529
:1056F000302700E02027880404D505E041463846DD
:10570000B0476D1C641EF9D52846BDE8F081000045
:105710002DE9F04D0546DFF8388221F000408D4F2D
:1057200082B00C46404520DBA0EB080129430BD09A
:105730008949884201DC10D17DB102B0284621465A
:10574000BDE8F04DFFF760BB002CC7BF002001464D
:105750008248394602B0BDE8F08D0120FFF778FBA2
:1057600002B0BDE8F04DFFF754BB7D49884244DAF2
:105770007C498142A1BF79487B4902B0BDE8F08DE8
:105780002A46234610461946FAF76FFE834602461C
:1057900076480E460B4606217844FFF769FA5A46CA
:1057A0003346FAF762FE074671488A465A46334640
:1057B00004217844FFF75CFA5A463346FAF755FE5F
:1057C00000224346FAF7AAFD02460B4638465146E8
:1057D000FAF7BDFE2A462346FAF747FE654A664BAE
:1057E000FAF740FE2A462346FAF73CFE02B05B4A2F
:1057F000BDE8F04D5C4BFAF735BE002C4FF00002CF
:105800004BDA4646434628462146FAF787FD4FF0D5
:10581000FF32FBF7F3F80446024658480D460B46A4
:1058200006217844FFF724FA22462B46FAF71DFE9C
:10583000804653488A4622462B4604217844FFF787
:1058400017FA22462B46FAF710FE00223346FAF7E3
:1058500065FD06468B462046294600F0DFFC0446DF
:105860000D4632465B4640465146FAF770FE2246E8
:105870002B46FAF7FAFD3F4A3F4BFAF7F0FD224676
:105880002B46FAF74BFD0122FBF7B8F802B03B4676
:10589000BDE8F04D314AFAF7E5BD2D4B28462146CB
:1058A000FAF7E0FD4FF0FF32FBF7A8F805460E4689
:1058B00000F0B4FC00270C4680463A460B46FAF747
:1058C0002DFD82468B463A46234610461946FAF786
:1058D000CCFD2A463346FAF7C5FD52465B46FAF739
:1058E00036FE824627488B462A46334606217844B0
:1058F000FFF7BEF92A463346FAF7B7FDCDE90001B6
:1059000021482A46334604217844FFF7B1F92A4654
:105910003346FAF7AAFD00220D4BFAF7FFFC0246C8
:105920000B46DDE90001FAF712FE42462346FAF77C
:105930009CFD52465B46FAF7F1FC3A462346FAF7DD
:10594000EDFC02B00122BDE8F04DFBF757B80000B6
:105950000000F03FFB2109400000F07F182D445467
:105960000000E03F0000603CFB21F93F7C0B0000A1
:10597000920B0000075C143326A6913CF20A00004B
:10598000080B0000260A00003C0A00002DE9F84F31
:1059900004460D4621F0004000917349814211DC1C
:1059A0007249884201DC06D12CB120462946BDE867
:1059B000F84FFFF729BA6E48002DCCBF6D496E49EC
:1059C000BDE8F88F6D49814211DD6D498142D8BF34
:1059D0004FF0FF366DDD20462946FEF7F3FE042822
:1059E00008BFFFF71DFA20462946BDE8F88F654934
:1059F000654F25F00045814233DD6449814219DD60
:105A0000002632464FF0804320462946FAF786FCAE
:105A100080468A46012220462946FAF7EFFF0022F7
:105A20003B46FAF71CFD42465346FAF790FD044602
:105A30000D463EE001260022BA463B462046294656
:105A4000FAF76CFC80460F46002253462046294652
:105A5000FAF705FD42463B46FAF779FD04460D4646
:105A600027E04B4981421BDDDFF828A102260022F6
:105A7000534620462946FAF7F8FC00223B46FAF73F
:105A80004DFC80460F460022534620462946FAF731
:105A9000E6FC42463B46FAF75AFD04460D4608E04E
:105AA000032622462B4600203B49FAF750FD0446C8
:105AB0000D4622462B4610461946FAF7D6FC8B4671
:105AC000824602460B46FAF7D0FC074602463348A8
:105AD00088460B4606217844FFF7CAF852465B46D3
